:1001C4003F065B4F666D7D077F6F777C395E797183
:0101D400002A
:10010300010B00010C00010900010A00C181C1803B
:0E011300090DFFFEFDFBF7EFDFBF7F010800C7
:10012200D3EF9400EE940040147D727C00ED1D70BC
:0D013200011CED4C70F7EF1F70E61E80E31E
:01013F00229D
:1001AD00740D2FF8E6F580D2A7C2A7ED9001C49388
:0701BD00F580D2A6C2A622C4
:0F01E500750C0A750A0AC292D293D296C297225B
:0F01F400750C0A750A0AD296C297D292C293224C
:0F020300750C0A750A0AC292D293C296D297223C
:09022100C292C293C296C2972258
:10019500750C0B750A0BC292D293C296D2977F8AC1
:0801A5007E0212012202022178
:0F021200750C0A750A0AD292C293C296D297222D
:10014000300118E50BD3950C5004D2948002C29470
:0E015000E50BC394144006E4F50B22C2942282
:10015E00300018E509D3950A5004D2958002C29555
:0E016E00E509C394144006E4F50922C2952267
:1000D20020B40920B3061201E575160120B40630DA
:1000E200B30312020330B40620B3031201F430B496
:1000F2000F30B30C1201E5E51660020508E4F516AF
:0101020022DA
:1001D500758901758CFC758A18D28CD2A9D2AF228B
:10009A00E4F5177590F020B7FD7F327E0012012239
:1000AA0020B7F37F327E001201221201D5E508C380
:1000BA009408500F1200D2E50860F2FD7F06120183
:0800CA00AD80EA12022180E57D
:03000B0002017C73
:10017C00C0E0C0D0758CFC758A18050B05091201FE
:09018C004012015ED0D0D0E03237
:0300000002000EED
:0C000E00787FE4F6D8FD758120020055D3
:10001A0002009AE493A3F8E493A34003F68001F262
:10002A0008DFF48029E493A3F85407240CC8C333E7
:10003A00C4540F4420C8834004F456800146F6DFB6
:10004A00E4800B0102040810204080900103E47E42
:10005A00019360BCA3FF543F30E509541FFEE493AB
:10006A00A360010ECF54C025E060A840B8E493A372
:10007A00FAE493A3F8E493A3C8C582C8CAC583CA9D
:10008A00F0A3C8C582C8CAC583CADFE9DEE780BE55
:0101210000DD
:00000001FF
